:020000040800F2
:1000000000000220C5480008390900083B09000823
:100010003D0900083F0900084109000800000000F0
:10002000000000000000000000000000430900087C
:1000300045090008000000004709000849090008B8
:100040001549000815490008154900081549000818
:100050001549000815490008154900081549000808
:1000600015490008154900081549000815490008F8
:1000700015490008154900081549000815490008E8
:1000800015490008154900081549000815490008D8
:1000900015490008154900081549000815490008C8
:1000A00015490008154900081549000815490008B8
:1000B00015490008154900081549000815490008A8
:1000C0001549000815490008154900081549000898
:1000D0001549000815490008154900081549000888
:1000E0001549000815490008154900081549000878
:1000F0001549000815490008154900081549000868
:100100001549000815490008154900081549000857
:100110001549000815490008154900081549000847
:100120001549000815490008154900081549000837
:100130001549000815490008154900081549000827
:10014000154900081549000815490008510900081B
:100150001549000815490008154900081549000807
:1001600015490008154900081549000815490008F7
:10017000154900081549000815490008000000004D
:080180001549000815490008AB
:10019000034613F8012B002AFBD1181A01387047C7
:1001A00001F0FF01102A2BDB10F0070F08D010F828
:1001B000013B013A8B422DD010F0070F42B3F6D12C
:1001C000F0B441EA012141EA014122F007047FF045
:1001D00000070023F0E80256083C85EA010586EA9C
:1001E000010685FA47F5A3FA87F586FA47F6A5FAD8
:1001F00087F68EB9EED1F0BC01F0FF0102F00702E4
:1002000032B110F8013B013A83EA010313B1F8D18E
:100210000020704701387047002D06BF354603386F
:10022000073815F0010F07D1013015F4807F02BFA8
:10023000013015F4C03F0130F0BC0138704700BFF9
:1002400053B94AB9002908BF00281CBF4FF0FF313D
:100250004FF0FF3000F00CB8ADF1080C6DE904CEA2
:1002600005F000F8DDF804E0DDE9022304B0704792
:10027000704700BF10B5054C237833B9044B13B158
:100280000448AFF300800123237010BD4801002013
:10029000000000002055000808B5034B1BB10349BE
:1002A0000348AFF3008008BD000000004C010020AF
:1002B0002055000803F0030CD20002EB53130CEBA3
:1002C000830C00EB0C2001EB00207047490901EB87
:1002D000C000704700B589B000238DF804308DF858
:1002E00005308DF806308DF807308DF800308DF828
:1002F00001308DF802308DF803308DF81C308DF808
:100300001D308DF81E308DF81F308DF81830082202
:100310008DF819208DF81A308DF81B308DF81430B7
:100320008DF815308DF816308DF817308DF81030A7
:100330008DF811308DF812308DF813308DF80C30A7
:100340008DF80D308DF80E308DF80F308DF80830A7
:100350008DF809208DF80A308DF80B3000F0D6F8B2
:10036000034618B9184609B05DF804FB00F034F9EB
:1003700003460028F6D001AA2321202000F054F9DA
:100380006A462721242000F04FF907AA0321002004
:1003900000F04AF906AA0721042000F045F905AA51
:1003A0000B21082000F040F904AA1321102000F0CE
:1003B0003BF903AA1721142000F036F902AA1B21E9
:1003C000182000F031F90421602000F0EBF8012141
:1003D000702000F0E7F800212A2000F0E3F8E52182
:1003E000292000F0DFF88321282000F0DBF800F05E
:1003F00008F90346B6E730B585B0044600F034F995
:100400003F284DD9054600F0C003C02B18BF402B34
:100410002CD0802B30D005F01805102D32D00123C0
:1004200023709DF801109DF80000FFF74FFF6060FA
:100430009DF8043023729DF8053063729DF80630F4
:10044000A3729DF80730E3729DF8083023739DF87E
:10045000093063739DF80A30A3739DF80B30E37382
:100460009DF80C302374012005B030BD0D22694683
:10047000902000F07DF8CEE70D226946942000F030
:1004800077F8C8E7022323709DF801309DF800201B
:100490009DF803109DF80200FFF70CFF6060C7E7AE
:1004A0000020E1E700B583B08DF807000A230122A0
:1004B0000DF10701024801F0DEFE03B05DF804FB18
:1004C0006401002008B50A460A230146014801F0EC
:1004D000D2FE08BD6401002000B583B00A230122CA
:1004E0000DF10701034802F0C4F89DF8070003B0BE
:1004F0005DF804FB6401002008B50A460A230146A2
:10050000014802F0B6F808BD6401002010B50122D0
:100510001021084800F006FC0A24074802F068F998
:10052000012805D0631E13F0FF04F6D1002010BD92
:100530000120FCE7000002406401002038B50446B9
:100540000A4D00221021284600F0ECFB0320FFF7A3
:10055000A9FF2046FFF7A6FFFFF7BEFF04460122D2
:100560001021284600F0DEFB204638BD0000024086
:10057000F8B506460C461546094F002210213846AC
:1005800000F0D0FB3046FFF78DFF29462046FFF7ED
:10059000B3FF01221021384600F0C4FBF8BD00BFB4
:1005A0000000024070B505460C460A4E002210219C
:1005B000304600F0B7FB0220FFF774FF2846FFF734
:1005C00071FF2046FFF76EFF01221021304600F038
:1005D000A9FB70BD0000024010B580210F20FFF77D
:1005E000E1FF0A240E20FFF7A9FF00F0E0008028B9
:1005F00005D0631E13F0FF04F4D1002010BD0120CC
:10060000FCE710B500210F20FFF7CCFF0A240E20D5
:10061000FFF794FF1F2805D9631E13F0FF04F6D1DE
:10062000002010BD0120FCE7F8B505460C46164633
:100630000C4F00221021384600F074FB0220FFF717
:1006400031FF2846FFF72EFF611BC9B20131C9B245
:100650003046FFF737FF01221021384600F062FBD9
:10066000F8BD00BF0000024038B5094D002210213E
:10067000284600F057FBB020FFF714FFFFF72CFFD0
:10068000044601221021284600F04CFB204638BDCC
:100690000000024030B589B000240394049405940E
:1006A000069407940094184B1A6B42F004021A63E4
:1006B0001A6B02F004020092009A01941A6B42F045
:1006C00080021A631A6B02F080020192019A02946E
:1006D0001A6B42F001021A631B6B03F001030293D1
:1006E000029B0A4D22461021284600F01BFB1023D6
:1006F0000393012304930594069403A9284600F06C
:100700001BFA09B030BD00BF0038024000000240B3
:1007100072B6FEE708B50D480D4B03604FF48273C7
:10072000436000238360C360036143614FF4007240
:1007300082612022C2610362436283620A23C36230
:1007400001F03AFD00B908BDFFF7E2FF64010020A7
:100750000030014000B595B03022002108A804F017
:10076000FBF80023039304930593069307930193E7
:10077000204A116C41F080511164126C02F08052D9
:100780000192019A02931C4B1A6842F480421A604B
:100790001B6803F480430293029B012308934FF4E8
:1007A0008033099302230E934FF480020F920422A8
:1007B0001092A822119212930723139308A801F014
:1007C000F1F898B90F2303930223049300230593B0
:1007D0004FF4A05306934FF480530793052103A8C9
:1007E00001F04AFB20B915B05DF804FBFFF790FF5C
:1007F000FFF78EFF003802400070004080B5A6B0C1
:1008000000F0DEF8012210211D4800F08BFAFFF7FE
:10081000A1FFFFF73FFFFFF77DFF03F0FDFDFFF7AF
:1008200059FD21A8FFF7E7FD0028FAD09DF88D308B
:100830009DF88E209DF88F109DF890009DF89140B6
:100840009DF892509DF893609DF8947007970696D6
:100850000595049403900291019200939DF88C30C9
:10086000229A22F06042074908A804F055F808A827
:10087000FFF78EFC81B208A803F020FED1E700BF8D
:10088000000002403855000800B583B000210091F7
:100890000C4B5A6C42F480425A645A6C02F4804207
:1008A0000092009A01911A6C42F080521A641B6CFB
:1008B00003F080530193019B072000F003F903B07C
:1008C0005DF804FB0038024000B589B000230393B3
:1008D00004930593069307930268154B9A4202D03E
:1008E00009B05DF804FB0021019103F584335A6CD3
:1008F00042F480525A645A6C02F480520192019A76
:1009000002911A6B42F001021A631B6B03F00103A0
:100910000293029BE0230393022304930323069391
:100920000523079303A9034800F006F9D8E700BFA1
:100930000030014000000240FEE7FEE7FEE7FEE770
:10094000FEE770477047704708B500F053F808BDE0
:1009500008B5024800F01BFD08BD00BFC01800200C
:10096000034AD2F8883043F47003C2F888307047E5
:1009700000ED00E010B504460E4B1A784FF47A7380
:10098000B3FBF2F30C4A1068B0FBF3F000F0C0F8D0
:1009900068B90F2C01D901200AE0002221464FF04E
:1009A000FF3000F0A1F8054B1C60002000E00120A2
:1009B00010BD00BF0400002000000020080000203F
:1009C00008B50B4B1A6842F400721A601A6842F4B8
:1009D00080621A601A6842F480721A60032000F084
:1009E00071F80020FFF7C6FFFFF74EFF002008BD9B
:1009F000003C0240034A1168034B1B780B44136010
:100A0000704700BFBC01002004000020014B1868A3
:100A1000704700BFBC01002038B50446FFF7F6FF61
:100A20000546B4F1FF3F02D0044B1B781C44FFF78E
:100A3000EDFF401BA042FAD338BD00BF04000020E8
:100A4000002807DB00F01F02400901239340024AFF
:100A500042F82030704700BF00E100E0002808DBCA
:100A60000901C9B200F1604000F5614080F800134F
:100A7000704700F00F000901C9B2014B19547047CB
:100A800014ED00E000B500F00700C0F1070CBCF168
:100A9000040F28BF4FF0040C031D062B0FD9C31EF3
:100AA0004FF0FF3E0EFA0CF021EA000199400EFAD9
:100AB00003FE22EA0E0241EA02005DF804FB002375
:100AC000EEE70000074AD36823F4E0631B041B0C25
:100AD000000200F4E060034343F0BF6343F40033DB
:100AE000D360704700ED00E010B50446054BD868B0
:100AF000C0F30220FFF7C6FF01462046FFF7AEFF16
:100B000010BD00BF00ED00E008B5FFF799FF08BD7C
:100B10000138B0F1807F0BD24FF0E0235861054AD5
:100B2000F02182F823100020986107221A61704793
:100B30000120704700ED00E000230F2B00F2E98058
:100B400070B582B065E085684FEA430E032404FA6D
:100B50000EF425EA0405CC6804FA0EF42C438460F4
:100B6000446824EA02044A68C2F300129A4022430D
:100B700042605CE0DC08083450F8242003F00705EC
:100B8000AD004FF00F0E0EFA05FE22EA0E0E0A69B6
:100B9000AA4042EA0E0240F824205CE0072200E06E
:100BA000002202FA0EF22A4302345A4D45F824205C
:100BB000594A94686FEA0C0224EA0C054E6816F450
:100BC000801F01D04CEA0405534CA560E46802EA9A
:100BD00004054E6816F4001F01D04CEA04054E4C83
:100BE000E560646802EA04054E6816F4003F01D02F
:100BF0004CEA0405484C6560246822404D6815F4B1
:100C0000803F01D04CEA0402434C226001330F2B99
:100C10007DD801229A400C6804EA020C32EA0404EE
:100C2000F4D14C6804F00304013C012C8BD94A68D0
:100C300002F00302032A09D0C4685D000322AA401F
:100C400024EA02048A68AA402243C2604A6802F089
:100C50000302022A8ED004684FEA430E032202FAEE
:100C60000EF224EA02044A6802F0030202FA0EF2CB
:100C7000224302604A6812F4403FC7D0002201922A
:100C8000264A546C44F480445464526C02F480420A
:100C90000192019A9C08A51C1E4A52F8255003F0A7
:100CA000030E4FEA8E0E0F2202FA0EF225EA02051B
:100CB0001B4A90423FF474AF02F5806290421AD012
:100CC00002F58062904218D002F58062904216D000
:100CD00002F58062904214D002F58062904212D0F8
:100CE00002F58062904210D002F5806290423FF49B
:100CF00055AF082255E7012253E7022251E70322AC
:100D00004FE704224DE705224BE7062249E702B0F0
:100D100070BD704700380140003C0140003802407F
:100D2000000002400AB18161704709048161704787
:100D30002DE9F04383B0D0F8008001EBC10300EB54
:100D400083039A6A5B6A9A4254D807460C469B1AF8
:100D500001EBC10200EB8202D2699A4200D31A462B
:100D600002F103094FEA990915E006F103094FEA78
:100D70009909BB7904EBC40507EB8505296A009343
:100D8000B3B2E2B2404602F06AF82B6A33442B62F7
:100D9000AB6A3344AB6208EB441303F510639B6901
:100DA0009BB24B4512D304EBC40307EB83039A6A4F
:100DB0005B6A9A420AD24BB19B1A04EBC40207EB5E
:100DC0008202D6699E42D0D31E46CEE704EBC4030E
:100DD00007EB83077A6ABB6A9A420FD804F00F04C4
:100DE0000122A240D8F8343823EA0203C8F8343884
:100DF000002000E0012003B0BDE8F0830020FAE706
:100E000030B583B000287AD00446056890F8953450
:100E1000C3B1032384F89534B5F1A04F17D02068EF
:100E200001F0D0FD237C8DF80030231D0ECB20680F
:100E300001F006FD70B1022384F89534012528469F
:100E400003B030BD80F8943403F0E8FBE1E7002301
:100E5000A371E4E70021206802F011FA024608B904
:100E6000034617E0022384F895340125E7E703EBF6
:100E7000C30104EB8101012048750B75CB8500206F
:100E80000876C861086203EBC30104EB8101486284
:100E90000133DBB220799842E9D816E002EBC203B5
:100EA00004EB8303002183F8551283F8542283F85E
:100EB0005812C3F85C12C3F8601202EBC20304EBD1
:100EC0008303C3F864120132D2B29042E6D8237C85
:100ED0008DF80030231D0ECB206801F0C9FD0546BA
:100EE00020B1022384F895340125A8E70023637418
:100EF000012384F89534206802F080F99FE70125EA
:100F00009DE7036890F89424012A1AD010B504468E
:100F1000012280F89424DA6812F0400F02D0427B5C
:100F2000012A09D0206801F047FD206802F058F935
:100F3000002084F8940410BD9A6B42F480329A63C6
:100F4000F0E702207047000070B504460D460068C7
:100F5000066C00EB411303F530639A68A17901290F
:100F600011D038498E4256D03DB905EBC50304EB8C
:100F70008303D3F86432002B5ED0E9B2204603F03D
:100F800097FB002070BD12F0080F09D02E498E4249
:100F9000F7D912F4004FF4D04FF400429A60F0E712
:100FA00012F0200F02D020229A60EAE712F0280FF8
:100FB000E7D125498E4206D912F4004F03D04FF4F1
:100FC00000429A60DDE705EBC50204EB8202D2F82D
:100FD00074121B69C3F31203CB1AC2F868327DB9CD
:100FE00005EBC50204EB8202D2F864226AB105EB7C
:100FF000C50204EB8202D2F860121944C2F86012F2
:10100000E9B2204603F054FBBBE704F29C42012105
:1010100002F074F9F4E712F4004F03D04FF40042E9
:101020009A60AEE712F0200F01D020229A60E9B258
:10103000204603F03DFBA4E704F29C42002102F0AD
:101040005DF99AE70A31544F0A30544F38B50446D7
:1010500003681D6C03EB4113D3F8081B0E4A95423D
:1010600007D903F5306311F4004F02D04FF400426A
:101070009A60204603F014FB074B9D4202D9A379E6
:10108000012B01D0002038BD04F29C4201212068D0
:1010900002F034F9F6E700BF0A30544F90F8943468
:1010A000012B0CD010B50446012380F89434417410
:1010B000006802F085F8002084F8940410BD022036
:1010C000704738B505468C4611F0800F29D101F0E4
:1010D0000F0E0EEBCE04A40004F514740444211D7D
:1010E0000EEBCE0E00EB8E0E00208EF855020CF0AB
:1010F0000F0C81F800C08A600B714A780AB1A1F820
:101100001AC0022B1CD095F89434012B1BD001235C
:1011100085F89434286801F086FD002085F8940451
:1011200038BD01F00F0000EBC001890010312944E7
:10113000043100EBC00005EB800001244475D6E7C4
:1011400000234B71DFE70220EAE710B504460A46A8
:1011500011F0800F20D101F00F0000EBC0039B00C5
:1011600003F514732344191D00EBC00004EB800049
:10117000002380F8553202F00F020A7094F894347C
:10118000012B18D0012384F89434206801F098FDD5
:10119000002084F8940410BD01F00F0000EBC003A0
:1011A0009B0010332344191D00EBC00004EB8000AA
:1011B00001234375DFE70220EDE710B5144601F087
:1011C0000F0C0CEBCC01890001F5147101440431C2
:1011D0000CEBCC0E00EB8E0ECEF86022CEF8643213
:1011E0000023CEF868328EF855328EF854C28279D8
:1011F000012A04D0006801F049FE002010BDCEF89D
:101200007042F7E701F00F0101EBC10100EB810033
:10121000D0F86802704710B5144601F00F0C0CEBC3
:10122000CC0189001031014404310CEBCC0E00EBF1
:101230008E0ECEF82020CEF824300023CEF82830B1
:1012400001238EF815308EF814C082799A4204D0AA
:10125000006801F01BFE002010BDCEF83040F7E71B
:1012600038B501F00F050279AA4238D304460B467F
:1012700011F0800F1FD101EBC101890001F514713C
:101280000144043103EBC30300EB8303002283F822
:10129000552201238B700D7094F89434012B20D0CB
:1012A000012384F89434206801F02FFF85B10020D9
:1012B00084F8940438BD05EBC50189001031014460
:1012C000043105EBC50300EB830301225A75E0E707
:1012D00004F29C42A179206802F010F8E7E70120AF
:1012E000E8E70220E6E701F00F0302799A4230D3E3
:1012F00010B5044611F0800F1ED103EBC301890025
:1013000001F514710144043103EBC30200EB8202C6
:10131000002082F8550200228A700B7094F89434F1
:10132000012B18D0012384F89434206801F01AFFAF
:10133000002084F8940410BD03EBC3018900103130
:101340000144043103EBC30200EB8202012050751B
:10135000E1E7012070470220EDE708B511F0800FAA
:101360000CD101F00F0101EBC101890001F51471ED
:1013700001440431006801F013FD08BD01F00F01C4
:1013800001EBC1018900103101440431F2E72DE97C
:10139000F04F83B004460568284601F06CFF10B199
:1013A00003B0BDE8F08F0646206801F035FF002845
:1013B000F6D005F50067BB68C3F30D23C4F8D43439
:1013C000206801F029FF10F0020F04D02268536951
:1013D00003F002035361206801F01EFF10F0100FAC
:1013E00015D02268936923F010039361D5F820800B
:1013F00008F00F0908F4F013B3F5802F4CD0B3F5C3
:10140000402F6FD02268936943F0100393612068E6
:1014100001F002FF10F4002F76D1206801F0FCFEED
:1014200010F4802F40F0E080206801F0F5FE0028E5
:10143000C0F26181206801F0EFFE10F4006F09D066
:10144000BB6813F0010F40F06E812268536903F40A
:1014500000635361206801F0DFFE10F4805F40F00C
:101460006681206801F0D8FE10F4005F40F0B3817F
:10147000206801F0D1FE10F0080F40F0C481206810
:1014800001F0CAFE10F0800F00F0D781AB6923F0A5
:101490008003AB610126C0E147F6F07318EA030F41
:1014A000B0D04FEA181A4FEAC903019309EBC90BF0
:1014B00004EB8B0BC8F30A12DBF86012284601F02C
:1014C00001FEDBF86032CAF30A0A5344CBF86032FB
:1014D000DBF86832019A4A4404EB82025344C2F8B2
:1014E00068328FE7082204F29C41284601F0EAFDA9
:1014F00009EBC90304EB8303D3F86822C8F30A1885
:101500004244C3F868227DE7206801F089FE8046E6
:10151000B14635E005EB49130122C3F8082B4946D3
:101520002046FFF711FD3CE005EB49130822C3F804
:10153000082B49462046FFF789FD35E009EBC90332
:1015400004EB830393F85732012B41D005EB491389
:101550000222C3F8082B1AF0200F04D005EB491320
:101560002022C3F8082B1AF4005F05D005EB4913BD
:101570004FF40052C3F8082B09F101094FEA58084B
:10158000B8F1000F3FF449AF18F0010FF4D05FFA43
:1015900089FB5946206801F053FE824610F0010F86
:1015A000B8D11AF0080FBFD11AF0100F04D005EB14
:1015B00049131022C3F8082B1AF0020FCBD06B6925
:1015C00013F0800FBAD07B6843F480637B60B5E78B
:1015D00009EBC90304EB8303002283F85722594621
:1015E000204603F0B5F8B1E7206801F021FE8046FF
:1015F000B14625E05946204603F066F81AF0080F78
:1016000004D005EB49130822C3F808291AF0100F7B
:1016100004D005EB49131022C3F808291AF0400F33
:1016200004D005EB49134022C3F808291AF0020F31
:1016300040D11AF0800F59D109F101094FEA580839
:10164000B8F1000F3FF4F0AE18F0010FF4D05FFADC
:1016500089FB5946206801F0FCFD824610F0010F1D
:10166000CCD009F00F02012101FA02F27B6B23EAD0
:1016700002037B6305EB4913C3F80819A3798B4276
:10168000B8D109EBC90304EB83031A6AD9690A4488
:101690001A62B9F1000FADD109EBC90304EB830362
:1016A0005B6A002BA6D104F29C420121206801F064
:1016B00025FE9FE74946284601F08AF909EBC90350
:1016C00004EB8303DB7D012B05D005EB49130222DC
:1016D000C3F80829ADE709EBC90304EB8303002233
:1016E000DA755946204603F039F8EEE749462046B8
:1016F000FFF71EFBA0E77B6823F001037B6094F8F3
:10170000CC34012B08D0204603F01CF82268536922
:1017100003F0004353618DE6002184F8CC14204689
:1017200000F03FF9F2E7204602F0F4FF8DE67B6817
:1017300023F001037B601021206801F049F91AE0D1
:1017400005EB46134FF67F31C3F80819D3F800298B
:1017500022F40012C3F80029C3F8081BD3F8002BA9
:1017600022F40012C3F8002BD3F8002B42F00062E1
:10177000C3F8002B01362379B342E1D8FB6943F06B
:101780000113FB61E37BDBB1D7F8843043F00B033B
:10179000C7F884307B6C43F00B037B64D5F80038CA
:1017A00023F4FE63C5F8003804F29C42A179206856
:1017B00001F0A4FD2268536903F48053536150E69D
:1017C0007B6943F4005343F02B037B613B6943F097
:1017D0000B033B61E2E7206801F082FD206801F025
:1017E00011FAE071266800F0F7FB0146E279304615
:1017F00001F070F8204602F078FF2268536903F484
:101800000053536134E6204602F069FF22685369B1
:1018100003F00803536132E601362379B3420CD951
:1018200006EBC60304EB830393F85732012BF3D185
:10183000F1B22046FFF791FDEEE7206801F0ECFCE5
:1018400010F4801F25D1206801F0E6FC10F4001F81
:1018500059D0012326E001362379B3421BD905EB89
:101860004613D3F8002906EBC60304EB83031B7E63
:10187000012BF0D1002AEEDA06EBC60304EB83035A
:101880000122DA7566F07F01C9B22046FFF765FDD7
:10189000E1E70126E0E72268536903F4801353610E
:1018A000D1E7013322799A4228D905EB4312D2F8C5
:1018B000001B03EBC30204EB820292F85822012AB8
:1018C000EFD10029EDDA01F48031D4F8D42402F00C
:1018D00001029142E5D103EBC30204EB8202012134
:1018E00082F85712AA6942F08002AA616A6912F06E
:1018F000800FD6D17B6843F400737B602268536904
:1019000003F400135361206801F086FC10F0804F4F
:1019100010D1206801F080FC10F0040F3FF440ADBE
:1019200023685D6815F0040F0DD1226853682B43BE
:10193000536035E5204602F017FF2268536903F033
:1019400080435361E5E7204602F014FFEDE710B451
:101950000468606A31B940EA0240A06200205DF884
:10196000044B70478C46A36A00EB1340002308E049
:1019700003F1400104EB8101496800EB11400133A0
:10198000DBB20CF1FF318B42F2D340EA02400CF1A2
:101990003F0104EB81046060E0E7036859620020C6
:1019A00070477047002800F0E08170B582B00446AF
:1019B000036813F0010F3BD09F4B9B6803F00C03AF
:1019C000042B2CD09C4B9B6803F00C03082B21D0DC
:1019D0006368B3F5803F4FD0B3F5A02F52D0964B3C
:1019E0001A6822F480321A601A6822F480221A607F
:1019F0006368002B50D0FFF709F805468E4B1B6833
:101A000013F4003F14D1FFF701F8401B6428F5D907
:101A10000320B1E1884B5B6813F4800FD8D0864B6C
:101A20001B6813F4003F03D06368002B00F09F8114
:101A3000236813F0020F54D07F4B9B6813F00C0FF8
:101A40003ED07D4B9B6803F00C03082B33D0E3683A
:101A5000002B68D0794B01221A60FEF7D7FF0546AC
:101A6000754B1B6813F0020F54D1FEF7CFFF401BDC
:101A70000228F5D903207FE16F4A136843F48033CD
:101A80001360B5E76C4B1A6842F480221A601A683A
:101A900042F480321A60ABE7FEF7B8FF0546664BAA
:101AA0001B6813F4003FC3D0FEF7B0FF401B64284F
:101AB000F5D9032060E1604B5B6813F4800FC6D159
:101AC0005D4B1B6813F0020F03D0E368012B40F05D
:101AD0005081594A136823F0F803216943EAC1038E
:101AE0001360236813F0080F42D063696BB3534B44
:101AF0000122C3F8802EFEF789FF05464E4B5B6F2F
:101B000013F0020F34D1FEF781FF401B0228F5D9F4
:101B1000032031E1484A136823F0F803216943EABE
:101B2000C1031360DDE7454B00221A60FEF76EFF2C
:101B30000546414B1B6813F0020FD2D0FEF766FF3B
:101B4000401B0228F5D9032016E13C4B0022C3F8C4
:101B5000802EFEF75BFF0546374B5B6F13F0020FDD
:101B600006D0FEF753FF401B0228F5D9032003E1FE
:101B7000236813F0040F77D02F4B1B6C13F0805F9A
:101B800033D1002301932C4B1A6C42F080521A641B
:101B90001B6C03F080530193019B0125284B1B68AC
:101BA00013F4807F23D0A368012B34D0052B38D0C9
:101BB000214B1A6F22F001021A671A6F22F00402F9
:101BC0001A67A368002B3DD0FEF720FF06461A4B8C
:101BD0001B6F13F0020F46D1FEF718FF801B41F276
:101BE00088339842F3D90320C6E00025D6E7144A8B
:101BF000136843F480731360FEF708FF0646104B2A
:101C00001B6813F4807FCED1FEF700FF801B0228F3
:101C1000F5D90320B0E0084A136F43F001031367BE
:101C2000CFE7054B1A6F42F004021A671A6F42F0B1
:101C300001021A67C5E700BF0038024000004742B2
:101C400000700040FEF7E2FE0646524B1B6F13F099
:101C5000020F08D0FEF7DAFE801B41F2883398426B
:101C6000F3D9032088E0EDB9A369002B00F083804D
:101C7000484A926802F00C02082A51D0022B17D071
:101C8000454B00221A66FEF7C1FE0446414B1B6815
:101C900013F0007F42D0FEF7B9FE001B0228F5D9F1
:101CA000032069E03B4A136C23F080531364DBE7A5
:101CB000394B00221A66FEF7A9FE0546354B1B6814
:101CC00013F0007F06D0FEF7A1FE401B0228F5D9D5
:101CD000032051E0E369226A1343626A43EA8213F4
:101CE000A26A5208013A43EA0243E26A43EA026303
:101CF000284A5360284B01221A66FEF787FE0446E5
:101D0000244B1B6813F0007F06D1FEF77FFE001BFB
:101D10000228F5D903202FE000202DE000202BE041
:101D2000012B2BD01B4B5B6803F48001E2699142CD
:101D300026D103F03F02216A8A4223D1616A47F625
:101D4000C0721A40B2EB811F1ED103F44031A26A67
:101D50005208013AB1EB024F18D103F07063E26A06
:101D6000B3EB026F14D1002006E001207047012080
:101D700002E0012000E0002002B070BD0120FBE77E
:101D80000120F9E70120F7E70120F5E70120F3E75B
:101D90000120F1E7003802400000474208B5334B0C
:101DA0009B6803F00C03042B5BD0082B5BD12F4BFB
:101DB0005A6802F03F025B6813F4800F2CD02B4B63
:101DC0005868C0F388104FEA401CBCEB000C6EEB67
:101DD0000E0E4FEA8E1343EA9C634FEA8C11B1EB6F
:101DE0000C0163EB0E03DB0043EA5173C90011EBF6
:101DF000000C43F10003590200234FEA4C2041EA52
:101E0000DC51FEF71DFA194B5B68C3F30143013344
:101E10005B00B0FBF3F008BD144B5868C0F38810AA
:101E20004FEA401CBCEB000C6EEB0E0E4FEA8E131B
:101E300043EA9C634FEA8C11B1EB0C0163EB0E0398
:101E4000DB0043EA5173C90011EB000C43F10003BE
:101E5000990200234FEA8C2041EA9C51FEF7F0F9E9
:101E6000D1E70348D7E70348D5E700BF0038024071
:101E700000127A000024F400002800F09B8070B566
:101E80000D4604464F4B1B6803F007038B4208D2F4
:101E9000CBB24C4A1370136803F007038B4240F037
:101EA0008B80236813F0020F17D013F0040F04D0B7
:101EB000454A936843F4E0539360236813F0080F96
:101EC00004D0414A936843F4604393603E4A936868
:101ED00023F0F003A1680B439360236813F0010F14
:101EE00032D06368012B21D09A1E012A25D9364AA7
:101EF000126812F0020F61D033498A6822F003029F
:101F000013438B60FEF782FD06462F4B9B6803F060
:101F10000C036268B3EB820F16D0FEF777FD801BCF
:101F200041F288339842F0D9032042E0264A1268F1
:101F300012F4003FE0D101203BE0234A126812F086
:101F4000007FD9D1012034E01E4B1B6803F007034A
:101F5000AB4207D9EAB21B4B1A701B6803F00703A8
:101F6000AB422DD1236813F0040F06D0164A9368B4
:101F700023F4E053E1680B439360236813F0080FE8
:101F800007D0114A936823F46043216943EAC103EF
:101F90009360FFF703FF0C4B9B68C3F303130B4ADB
:101FA000D35CD8400A4B18600A4B1868FEF7E2FC75
:101FB000002070BD012070470120FAE70120F8E7FA
:101FC0000120F6E7003C024000380240CC550008F2
:101FD0000000002008000020014B1868704700BF77
:101FE000000000202DE9F04782B0054688461746DC
:101FF0001E46FEF70BFD0A9B1B1A03EB0609FEF7B4
:1020000005FD8246284B1B68C3F3CB3309FB03F362
:1020100001932B689C6838EA04040CBF0123002359
:10202000BB423DD0B6F1FF3FF3D0FEF7EFFCA0EB93
:102030000A00484507D2019A02B14A46019B013B7A
:1020400001939146E5E72A68536823F0E003536063
:102050006B68B3F5827F0BD0AB6AB3F5005F14D029
:10206000012385F85130002385F85030032018E013
:10207000AB68B3F5004F02D0B3F5806FECD12A689E
:10208000136823F040031360E6E72A68136823F41B
:10209000005313602A68136843F400531360DFE7AA
:1020A000002002B0BDE8F0870000002070B584B0C9
:1020B00004460D46164600920B4601220221FFF708
:1020C00091FFD0B9174B1B68174AA2FB03235B0D86
:1020D0004FF47A7202FB03F303936368B3F5827FD4
:1020E00011D0039B3BB1039B013B039323689B6887
:1020F00013F0800FF5D104B070BD636D43F0200381
:1021000063650320F7E700962B46002280212046D6
:10211000FFF768FF0028EED0636D43F0200363658E
:102120000320E8E700000020819F5E1610B582B012
:1021300004460B464168B1F5827F14D06168B1F561
:10214000827F2AD1A168B1F5806F19D00092002258
:1021500080212046FFF746FF30B3636D43F0200334
:102160006365032020E08168B1F5004F02D0B1F52E
:10217000806FE3D12068016821F040010160DDE754
:102180000092002201212046FFF72CFF60B1636D11
:1021900043F020036365032006E000920022012142
:1021A0002046FFF71FFF08B902B010BD636D43F072
:1021B000200363650320F7E700285AD010B50446D2
:1021C000436A33B94368B3F5827F05D00023C36106
:1021D00002E00023036143610023A36294F85130BD
:1021E000002B40D0022384F851302268136823F07A
:1021F00040031360636803F48273A26802F404422C
:102200001343E26802F400621343226902F00202FF
:102210001343626902F001021343A26902F40072DF
:102220001343E26902F038021343226A02F080028B
:102230001343A26A02F40052216813430B60638BBC
:1022400003F00403626A02F01002216813434B603A
:102250002268D36923F40063D36100206065012301
:1022600084F8513010BD84F850302046FEF72CFB26
:10227000B8E7012070472DE9F04383B01D4690F880
:102280005030012B00F0D18004468846914601234E
:1022900080F85030FEF7BAFB074694F85160F6B26A
:1022A000012E40F0BA80B8F1000F00F0B780B9F10C
:1022B000000F00F0B380032384F8513000236365DE
:1022C000C4F83080A4F83490A4F83690A363A387B0
:1022D000E38763642364A368B3F5004F1ED02368CB
:1022E0001A6812F0400F03D11A6842F040021A60D7
:1022F000E368B3F5006F1CD0636813B1B9F1010F47
:1023000055D1226B236812781A73236B0133236330
:10231000E38E9BB2013B9BB2E38648E022681368E0
:1023200023F0400313602268136843F48043136072
:10233000D5E7636813B1B9F1010F15D1226B23689A
:102340001288DA60236B02332363E38E9BB2013B76
:102350009BB2E38608E0FEF759FBC01BA84202D3FC
:10236000B5F1FF3F15D1A5B1E38E9BB2002B3CD058
:1023700023689A6812F0020FEDD0226B1288DA609F
:10238000236B02332363E38E9BB2013B9BB2E38654
:10239000EAE7012384F8513003263FE0FEF736FBDD
:1023A000C01BA84202D3B5F1FF3F19D1C5B1E38EDE
:1023B0009BB2D3B123689A6812F0020FEED0226B61
:1023C00012781A73236B01332363B4F836C01FFAF3
:1023D0008CFC0CF1FF3C1FFA8CFCA4F836C0E6E73D
:1023E000012384F85130032618E03A462946204656
:1023F000FFF75CFE08B120236365A36833B901933E
:102400002368DA6801929B680193019B636D2BB985
:10241000012384F85130002600E00226002384F8CE
:102420005030304603B0BDE8F0830226F9E72DE9CD
:10243000F04383B01F460A9D90F85030012B00F006
:102440001681044688469146012380F85030FEF7F5
:10245000DDFA064694F85130DBB26268012B0AD0EF
:10246000B2F5827F40F0F080A268002A40F0F3804D
:10247000042B40F0F280B8F1000F00F0F080B9F1C9
:10248000000F00F0EE80002F00F0ED8094F8513046
:10249000DBB2042B02D0052384F85130002363659E
:1024A000C4F83890E787A787C4F83080E786A78606
:1024B0002364636423681A6812F0400F03D11A681A
:1024C00042F040021A60E368B3F5006F11D0636810
:1024D0000BB1012F0BD1226B236812781A73236B77
:1024E00001332363E38E9BB2013B9BB2E38601275A
:1024F0006EE063680BB1012F0BD1226B2368128849
:10250000DA60236B02332363E38E9BB2013B9BB201
:10251000E38601271BE023689A6812F0010F0ED0B2
:10252000E28F92B25AB1DA68A36B1A80A36B0233BE
:10253000A363E38F9BB2013B9BB2E3870127FEF7C6
:1025400065FA801BA84202D3B5F1FF3F1ED1E38E8E
:102550009BB21BB9E38F9BB2002B5CD023689A68B7
:1025600012F0020FD7D0E28E92B2002AD3D0002F01
:10257000D1D0226B1288DA60236B02332363E38E9F
:102580009BB2013B9BB2E3860027C4E7012384F89A
:102590005130032059E023689A6812F0010F0ED0E1
:1025A000E28F92B25AB1DA68A36B1A70A36B01334F
:1025B000A363E38F9BB2013B9BB2E3870127FEF746
:1025C00025FA831BAB4202D3B5F1FF3F1ED1EDB11B
:1025D000E38E9BB213B9E38F9BB2E3B123689A6891
:1025E00012F0020FD7D0E28E92B2002AD3D0002F81
:1025F000D1D0226B12781A73236B01332363E38EDD
:102600009BB2013B9BB2E3860027C4E7012384F819
:102610005130032019E0324629462046FFF746FD97
:1026200070B9A36833B901932368DA6801929B6893
:102630000193019B636DC3B9012384F8513004E019
:1026400020236365012000E00220002384F850303D
:1026500003B0BDE8F0830220F7E70220F5E7012090
:10266000F3E70120F1E70120EFE70120EDE7022089
:10267000EEE72DE9F04383B0044690F85160F6B2DE
:10268000012E40F0AB80884691461D464368B3F565
:10269000827F32D094F85030012B00F0A7800123C4
:1026A00084F85030FEF7B2F90746B8F1000F00F099
:1026B0009680B9F1000F00F09280042384F8513025
:1026C00000236365C4F83880A4F83C90A4F83E90D9
:1026D0002363A386E38623646364A368B3F5004F92
:1026E00018D023681A6812F0400F03D11A6842F01C
:1026F00040021A60E3680BB343E08368002BC9D142
:10270000042380F85130009513460A46FFF78FFEE8
:10271000064667E02268136823F0400313602268CE
:10272000136823F480431360DBE7FEF76FF9C01BE7
:10273000A84202D3B5F1FF3F15D1A5B1E38F9BB2FB
:10274000002B3CD023689A6812F0010FEDD0A26BE9
:102750001B7B1370A36B0133A363E38F9BB2013B1D
:102760009BB2E387EAE7012384F85130032636E081
:10277000FEF74CF9C01BA84202D3B5F1FF3F19D1B7
:10278000C5B1E38F9BB2D3B123689A6812F0010FF1
:10279000EED0DA68A36B1A80A36B0233A363B4F89C
:1027A0003EC01FFA8CFC0CF1FF3C1FFA8CFCA4F815
:1027B0003EC0E6E7012384F8513003260FE03A4695
:1027C00029462046FFF7B2FC08B120236365636DFC
:1027D0002BB9012384F85130002600E002260023A3
:1027E00084F85030304603B0BDE8F0830226F9E7A4
:1027F00090F85100704782B000230193019B013390
:102800000193019BB3F1706F15D80369002BF5DAC2
:1028100000230193036943F001030361019B01332A
:102820000193019BB3F1706F08D8036913F0010F96
:10283000F4D1002000E0032002B070470320FBE742
:1028400084B010B5044603A880E80E009DF811304E
:10285000012B21D1A36B23F48033A363E36823F41A
:10286000840323F04003E360E36823F44013E36050
:102870009DF81830012B0AD02046FFF7BCFF9DF8C9
:102880000E30012B1CD0BDE8104004B07047E36847
:1028900043F48013E360EFE7E36843F04003E36051
:1028A0002046FFF7A8FF9DF8153023B9A36B43F42A
:1028B0008033A363E3E7A36B23F48033A363DEE7F2
:1028C000A36843F00603A360A36843F02003A3605A
:1028D000D9E70000022A0AD00922C36823F4705302
:1028E000C360C36843EA8223C36000207047234B60
:1028F0000B44234A93422FD9224B0B44224A934242
:102900002CD9A1F57403A3F51053204A934227D97B
:10291000A1F18373A3F5E7431D4A934222D31D4BD4
:102920000B441D4A93421FD91C4B0B441C4A934233
:102930001CD31C4B0B441C4A934219D3A1F1B7730F
:10294000A3F55853194A934214D3194B0B44194A0F
:10295000934211D20722C0E70F22BEE70E22BCE746
:102960000D22BAE70C22B8E70B22B6E70A22B4E739
:102970000922B2E70822B0E70622AEE7405327FF5C
:10298000FF340C00401E1BFF3F420F007F4F120020
:1029900020D6130060B6E5FE5FE3160000D3CEFE3E
:1029A00040771B00C05BB3FEC0912100207538004A
:1029B000E05459FEE09C4100836843F001038360CA
:1029C00000207047836823F0010383600020704774
:1029D00082B000230193019B01330193019BB3F16A
:1029E000706F15D80369002BF5DA00230193890174
:1029F00041F020010161019B01330193019BB3F17F
:102A0000706F08D8036913F0200FF4D1002000E0A4
:102A1000032002B070470320FBE782B0002301933C
:102A2000019B01330193019BB3F1706F13D80369CC
:102A3000002BF5DA0023019310230361019B01337E
:102A40000193019BB3F1706F08D8036913F0100F65
:102A5000F4D1002000E0032002B070470320FBE720
:102A6000D0F800381943C0F8001800207047000063
:102A700084B0F8B5044607A880E80E00002306E0FD
:102A800003F1400204EB82020021516001330E2B5E
:102A9000F6D99DF8266006BBD4F8043843F002034B
:102AA000C4F80438A36B43F40013A363A36B23F4AB
:102AB0000023A363A36B23F48023A3630023C4F840
:102AC000003E9DF82130012B15D19DF81F306BB9C8
:102AD00000212046FFF7C4FF11E0A36B23F400138D
:102AE000A363A36B43F40023A363E7E7012120461C
:102AF000FFF7B6FF03E003212046FFF7B1FF1021E7
:102B00002046FFF765FF054600B101252046FFF787
:102B100084FF00B1012504F5006C0023CCF81030CF
:102B2000CCF81430CCF81C300AE0CBB94FF0006080
:102B3000C2F8000900220A614FF67F328A60013331
:102B40009DF81C10994210D904EB431202F5106154
:102B5000D2F800090028E8DB0020C2F80009E9E704
:102B60004FF09040C2F80009E4E700230AE0BBB14F
:102B70004FF09047C2F8007B002202614FF67F328F
:102B800082600133994210D904EB431202F53060A0
:102B9000D2F8007B002FEADB0027C2F8007BEBE7CE
:102BA0004FF00067C2F8007BE6E7DCF8103023F452
:102BB0008073CCF810300023A3616FF08043636111
:102BC0009DF81E301BB9A36943F01003A361A269ED
:102BD0000B4B1343A3619DF822301BB1A36943F053
:102BE0000803A361012E04D02846BDE8F84004B0D4
:102BF0007047A36943F0804343F00403A361F3E704
:102C000000383C80D0F8083803F00603022B04D0CB
:102C1000062B04D02BB900207047022070470220F9
:102C200070470F20704710B591F800C04B78012B0A
:102C300023D000F5006ED0F81C380CF00F040122F0
:102C4000A24043EA0243C0F81C3800EB4C10D0F815
:102C5000003B13F4004F0ED1D0F8003B8A68C2F35A
:102C60000A02097942EA8142134343F0805343F454
:102C70000043C0F8003B002010BDD0F81C280CF029
:102C80000F0E03FA0EF39BB21343C0F81C3800EB8F
:102C90004C10D0F8003913F4004FECD1D0F80039C3
:102CA0008A68C2F30A02097942EA814242EA8C52F6
:102CB000134343F0805343F40043C0F80039DAE78C
:102CC00030B40B784A78012A26D000EB4313D3F8AE
:102CD000002B002A52DBD0F83C480A7802F00F02A1
:102CE0004FF0010C0CFA02F224EA0242C0F83C2830
:102CF000D0F81C28097801F00F010CFA01FC22EA37
:102D00000C42C0F81C28D3F8001B234A0A40C3F821
:102D1000002B002030BC704700EB4313D3F8002990
:102D2000002A1EDBD0F83C580A7802F00F0201247A
:102D300004FA02F292B225EA0202C0F83C28D0F866
:102D40001C28097801F00F018C40A4B222EA040289
:102D5000C0F81C28D3F80019104A0A40C3F800290B
:102D6000D7E7D3F8002942F00062C3F80029D3F86E
:102D7000002942F08042C3F80029D3E7D3F8002BA2
:102D800042F00062C3F8002BD3F8002B42F08042DF
:102D9000C3F8002B9FE700BF0078F3EF007833EC17
:102DA00010B483B0024600230193487801280BD069
:102DB0000B7802EB4313D3F8000B00282DDB002027
:102DC00003B05DF8044B70470B7802EB4313D3F864
:102DD0000049002C01DB0020F2E7D3F8004944F061
:102DE0000064C3F800490B7802EB4313D3F80049A1
:102DF00044F08044C3F80049019B01330193019CD6
:102E000042F210739C42DBD80B7802EB4313D3F8E9
:102E10000039002BF0DB0020D2E7D3F8000B40F0A4
:102E20000060C3F8000B0B7802EB4313D3F8000BE0
:102E300040F08040C3F8000B019B013301930198DF
:102E400042F21073984208D80B7802EB4313D3F880
:102E5000003B002BF0DB0020B2E70120B0E710B50B
:102E60009DF8084084B903334FEA930E4FF0000CED
:102E700008E000EB023303F5805351F8044B1C606B
:102E80000CF1010CF445F4D3002010BDF0B583B073
:102E90000C784B78012B2DD000EB441C0CF53063E3
:102EA0001D696FF312051D611D696FF3DC451D611E
:102EB000002C40F0C8800C690CB18C680C618C68E7
:102EC0000C621D69C4F312042C431C611C6944F498
:102ED00000241C61012A00F0D9800B79012B00F03D
:102EE000DB80DCF8003B43F00443CCF8003B0020DF
:102EF00003B0F0BD0B6973BB00EB4413D3F810595A
:102F00006FF3DC45C3F81059D3F8105945F4002588
:102F1000C3F81059D3F810596FF31205C3F81059BC
:102F2000012A4ED000EB4414D4F8003943F0044396
:102F3000C4F800390B79012B6CD00B69002BD6D06B
:102F4000D0F83438097801F00F0101228A40134388
:102F5000C0F83438CBE700EB441303F510631D6968
:102F60006FF312051D611D696FF3DC451D61DCB94E
:102F70000E698D68AE4200D90D611D6945F40025CA
:102F80001D611D690E69C6F3120C45EA0C051D6131
:102F90000D79012DC4D11D6925F0C0451D611D6944
:102FA00045F000551D61BBE71E690D698F683D4402
:102FB000013DB5FBF7F5424F07EAC54535431D61B5
:102FC000DFE7CB691BB100EB4412C2F814390B796F
:102FD000012B08D000EB4414D4F8003943F004432B
:102FE000C4F8003983E7D0F8083813F4807F08D19B
:102FF00000EB4412D2F8003943F00053C2F8003914
:10300000E8E700EB4412D2F8003943F08053C2F8ED
:103010000039DFE7D0F8083813F4807F0CD1D4F8FA
:10302000003943F00053C4F8003900920B8A0A7843
:10303000C968FFF714FF5AE7D4F8003943F080530A
:10304000C4F80039F1E70C6954B91C698D68C5F3FF
:1030500012052C431C611C6944F400241C6139E7EF
:103060008D682C44013CB4FBF5F4A4B204FB05F5D7
:103070000D621D69124E06EAC4442C431C611C6992
:103080000D6AC5F312052C431C6123E7CA68002AA8
:103090003FF423AF5A6120E7D0F8083813F4807F5B
:1030A00006D1DCF8003B43F00053CCF8003B18E7B6
:1030B000DCF8003B43F08053CCF8003B11E700BF45
:1030C0000000F81F10B5844608464FEA920E02F041
:1030D0000302002305E00CF58051096840F8041B49
:1030E00001337345F7D37AB10CF5805CDCF800400E
:1030F0000021CBB2DB0024FA03F300F8013B0131DD
:10310000013A92B2002AF4D110BD0B784A78012A14
:1031100014D000EB4310D0F8002B002A06DB2BB1B3
:10312000D0F8003B23F08043C0F8003BD0F8003BD0
:1031300043F40013C0F8003B0020704700EB43103D
:10314000D0F80029002A06DB2BB1D0F8003923F093
:103150008043C0F80039D0F8003943F40013C0F8B8
:103160000039E9E70B784A78012A0ED000EB4310CA
:10317000D0F8003B23F40013C0F8003B0B79023B6E
:10318000DBB2012B15D90020704700EB4310D0F8BB
:10319000003923F40013C0F800390B79023BDBB28D
:1031A000012BF0D8D0F8003943F08053C0F8003933
:1031B000E9E7D0F8003B43F08053C0F8003BE2E77A
:1031C000D0F8003823F4FE63C0F80038D0F8003897
:1031D000090101F4FE610B43C0F80038002070477C
:1031E000D0F8003E23F00303C0F8003ED0F80438C6
:1031F00023F00203C0F8043800207047D0F8003EE6
:1032000023F00303C0F8003ED0F8043843F0020373
:10321000C0F8043800207047426980691040704748
:10322000D0F8183800F50060C0691840000C7047ED
:10323000D0F8183800F50060C069184080B27047B7
:1032400000EB4111D1F8082B00F5006040691040F7
:103250007047D0F81028D0F8343801F00F0C23FA5A
:103260000CF3DB01DBB2134300EB411000F51060FF
:10327000806818407047406900F00100704738B519
:103280000546C36823F0C043C360012913D019BBAE
:10329000C36843F08043C36000240A20FDF7BCFBF1
:1032A0000A342846FFF7E7FF08B1C72CF5D9C82C28
:1032B00014D0002038BDC36843F00053C36000241D
:1032C0000A20FDF7A9FB0A342846FFF7D4FF01289E
:1032D000EDD0C72CF4D9EAE70120EBE70120E9E7BC
:1032E000D0F800396FF30A03C0F80039D0F8043879
:1032F00043F48073C0F804380020704710B4046CA5
:10330000154B9C4203D9D0F8003B002B16DB002460
:10331000C0F8104BD0F8104B44F40024C0F8104B08
:10332000D0F8104B44F01804C0F8104BD0F8104BF4
:1033300044F0C044C0F8104B012903D000205DF8D0
:10334000044B7047C0F8142BD0F8003B43F08023A7
:10335000C0F8003BF2E700BF0A30544F10B5D0F878
:10336000D43203F1B00250F822408CB100EB82005D
:1033700043687BB194F80002FF280DD09B6894F855
:10338000012221469847FF2384F80032002010BD17
:103390000320FCE70020FAE70020F8E70A23038077
:1033A0000048704788000020F8B506460F4F82217C
:1033B000384600F03EFC05460121384600F039FC55
:1033C00004468121384600F034FC0DB11022AA7168
:1033D0001CB1402222710022627118B14022027198
:1033E00000224271432333800048F8BD0C000020C6
:1033F000F8B506460F4F8221384600F01AFC054604
:103400000121384600F015FC04468121384600F0C1
:1034100010FC0DB11022AA711CB1402222710022B1
:10342000627118B14022027100224271432333803D
:103430000048F8BD0C000020F8B506460F4F822169
:10344000384600F0F6FB05460121384600F0F1FB56
:1034500004468121384600F0ECFB0DB11022AA7120
:103460001CB1002222710222627118B10022027185
:1034700002224271432333800048F8BD0C00002033
:1034800038B5D0F8D432B03350F8235095B1044653
:1034900001F0C0F9C5F80C02D4F8D432B03304EB13
:1034A00083046368DB6805F50371D5F80402984767
:1034B000002038BD0320FCE738B5D0F8C852D0F85A
:1034C000D432B03350F8234084B301F00F0303EB40
:1034D000830200EB820292694AB103EBC30C05EB55
:1034E0008C05ED69B2FBF5FC05FB1C2292B10023B3
:1034F000C4F81432D0F8D432B03300EB8300436800
:103500001B69ABB10A4604F50471D4F80802984768
:10351000002038BD03EB830300EB830300249C6190
:103520002346224601F0BEF92046F2E70320F0E7E9
:103530000020EEE7F0B583B0D0F8D43203F1B0024A
:1035400050F8227000228DF80720ADF80420002FDB
:103550007BD004460D46097811F0600634D0202E49
:103560006CD1EA882AB311F0800F07D16B7887F805
:103570000032EA883F2A13D8D2B212E0B03300EB0F
:1035800083035B689B68394668789847EA88072A0E
:1035900028BF07223946204600F0FCFE002651E0F5
:1035A000402287F801223946204600F008FF002615
:1035B00048E0B03300EB83035B689B680022294638
:1035C0006878984700263DE06F780B2F31D8DFE808
:1035D00007F006393030303030303030162690F871
:1035E0009C32DBB2032B04D0294600F05FFB03269C
:1035F00028E0022201A900F0CDFE3E4622E090F82C
:103600009C32DBB2032B04D0294600F04FFB03268B
:1036100018E001220DF1070100F0BCFE12E090F865
:103620009C32DBB2032B0DD0294600F03FFB032672
:1036300008E0294600F03AFB032603E0294600F0A3
:1036400035FB0326304603B0F0BD0326FAE738B554
:103650000446812101F006F9002525870121204635
:1036600001F000F9A4F878518221204601F0FAF81F
:10367000A4F84C50A4F84E50D4F8D43203F1B00260
:1036800054F822209AB1B03304EB83035B685B6883
:103690009847D4F8D432B03354F8230001F0C4F87A
:1036A000D4F8D432B03344F82350C4F8BC520020CC
:1036B00038BD70B504464FF4077001F0B1F800282A
:1036C00049D005464FF40772002101F045F9D4F8BE
:1036D000D432B03344F82350C4F8BC52237C002BBE
:1036E00041D14FF4007302228121204601F0AFF84E
:1036F000012626874FF4007302223146204601F04E
:10370000A6F8A4F878611023A4F84E300823032209
:103710008221204601F09BF80123A4F84C300026BA
:10372000C5F80462D4F8D432B03304EB83035B6889
:103730001B689847C5F81462C5F81862D5F80422CA
:1037400062B3257C1DBB4FF400730121204601F0BC
:10375000B1F8284670BDD4F8D432B033002244F812
:1037600023200225F5E7402302228121204601F093
:103770006EF801262687402302223146204601F0BA
:1037800066F8A4F878611023A4F84E30BEE7402311
:103790000121204601F08EF80025DAE70225D8E75E
:1037A00039B1D0F8D432B03300EB8300416000204F
:1037B000704703207047D0F8D432B03350F823302C
:1037C0002BB1C3F80812C3F8102200207047032061
:1037D0007047D0F8D432B03350F823301BB1C3F85F
:1037E0000412002070470320704708B5D0F8D43287
:1037F000B03350F823208AB1D2F814320BB1012033
:1038000008BD0123C2F81432D2F81032C362D2F8D4
:103810000822812101F046F80020F1E70320EFE7BC
:1038200010B5D0F8D432B03350F8232092B1047CD4
:1038300044B94FF40073D2F80422012101F03AF8A0
:10384000204610BD4023D2F80422012101F032F8B5
:103850000024F5E70324F3E798B108B503460020F8
:10386000C3F8B802C3F8C402C3F8D00209B1C3F860
:10387000B412012183F89C121A70184600F080FFE0
:1038800008BD0320704710B582B00023ADF80630A4
:1038900089B10446C0F8B812CB6A23B10DF1060015
:1038A0009847C4F8D002D4F8D8320133C4F8D832DB
:1038B000002002B010BD0320FBE708B500F0BFFFF9
:1038C00008BD08B5D0F8B83213B11B68984708BDD9
:1038D0000020FCE708B5D0F8B8325B68984700B91B
:1038E00008BD0320FCE738B5044600F2AA252846A7
:1038F00000F0C8F90123C4F89432B4F8B032C4F827
:10390000983294F8AA1201F01F03012B07D0022B62
:103910000AD073B92946204600F08AFB38BD2946F3
:10392000204600F0C0FBF9E72946204600F0FDFBE9
:10393000F4E701F08001204600F09CFFEEE7F8B5C7
:103940000446012380F89C320023C0F8943243607F
:10395000C0F8A43280F8A032D0F8B832DBB15B688E
:10396000DBB1002198470746C8B940230022114621
:10397000204600F06CFF0126A4F864614025C4F8DD
:1039800060512B4600228021204600F060FFA68473
:1039900025623846F8BD0027E7E70027E5E703275B
:1039A000E3E701740020704790F89C32DBB2042BEF
:1039B00004D090F89C32DBB280F89D32042380F86A
:1039C0009C320020704790F89C32DBB2042B01D06F
:1039D0000020704790F89D32DBB280F89C32F7E708
:1039E00008B590F89C32DBB2032B01D0002008BD53
:1039F000D0F8B832002BF9D0DB69002BF6D098470D
:103A0000F4E708B5D0F8D432AE3350F823205AB1D9
:103A100090F89C32DBB2032B01D0002008BD136A62
:103A200023B198470020F9E70320F7E70020F5E7E6
:103A300008B5D0F8D432AE3350F823205AB190F8FC
:103A40009C32DBB2032B01D0002008BD536A23B1A6
:103A500098470020F9E70320F7E70020F5E700206A
:103A6000704708B5012380F89C32D0F8B83223B1F2
:103A70005B680179984710B908BD0020FCE7032076
:103A8000FAE7002070470020704738B504460D461D
:103A9000002942D11346D0F89422032A01D00846C7
:103AA00038BDD0F85C11D0F86021914209D890F867
:103AB000AA3203F01F03012B0ED0022B1BD0284685
:103AC0000FE0891AC0F85C118A4228BF0A461946DD
:103AD00000F084FC2846E3E790F8AE12FFF7D1FF30
:103AE00020B994F89C32DBB2032B09D0204600F0B9
:103AF0007DFC2846D4E790F8AE12FFF7C4FFEFE74D
:103B000000F1AE0354F823301A69002AEED0C4F84D
:103B1000D4021B6920469847E8E701F07F01FFF7D0
:103B2000B2FF90B994F89C32DBB2032BB8D100F10C
:103B3000AE0354F823309A69002AB1D0C4F8D402F5
:103B40009B69294620469847AAE70020A8E738B590
:103B500004460D4600294BD11346D0F89422022A80
:103B600007D094F8A00218B1002384F8A0322846A8
:103B700038BDC269016A8A420ED88A4218D094F8C8
:103B80009C32DBB2032B27D08021204600F072FE4E
:103B9000204600F036FCE4E7521AC261194600F0F4
:103BA00006FC00231A461946204600F083FED8E79B
:103BB00083699942E3D8D0F898229342DFD2002259
:103BC000114600F0F4FB0021C4F898120B460A4697
:103BD000204600F06FFEC4E7D4F8B832DA68002A55
:103BE000D2D00022C4F8D422DB6820469847CBE725
:103BF00041F08001FFF747FF90B994F89C32DBB2A7
:103C0000032BB5D100F1AE0354F823305A69002AD2
:103C1000AED0C4F8D4025B69294620469847A7E78E
:103C20000020A5E70B88027813440B800378184422
:103C30007047428803789A4218D930B583B0044659
:103C40000D46ADF806306388BDF806209A420AD2C8
:103C50000DF10601FFF7E6FF4378052BF3D18378DA
:103C6000AB42F0D100E0002003B030BD002070472F
:103C70000346002002E00130C0B201331A78002A66
:103C8000F9D170470B7803704B7843708B78CA7802
:103C900043EA022343800B794A7943EA0223838073
:103CA0008B79CA7943EA0223C380704710B5044672
:103CB000802100F0DFFD0021204600F0DBFD10BD7B
:103CC00030B583B004460D460023ADF806304A886F
:103CD000130A013B062B00F2AB80DFE803F0041F60
:103CE00033A9A98D9A00D0F8B4321B680DF10601F2
:103CF000007C9847EA88002A00F0A380BDF80630CF
:103D0000002B00F099809A4228BF1A46ADF8062091
:103D10000146204600F03EFB03B030BD037C43B9B2
:103D2000D0F8B8329B6A0DF1060098470223437021
:103D3000E0E7D0F8B832DB6A0DF1060098470223BD
:103D40004370D7E7D2B2052A52D8DFE802F0031059
:103D50001D2A3744D0F8B4325B6823B10DF1060157
:103D6000007C9847C6E72946FFF7A0FFD4E7D0F8C4
:103D7000B4329B6823B10DF10601007C9847B9E786
:103D80002946FFF793FFC7E7D0F8B432DB6823B1C9
:103D90000DF10601007C9847ACE72946FFF786FF46
:103DA000BAE7D0F8B4321B6923B10DF10601007CEB
:103DB00098479FE72946FFF779FFADE7D0F8B4327F
:103DC0005B6923B10DF10601007C984792E7294613
:103DD000FFF76CFFA0E7D0F8B4329B6923B10DF177
:103DE0000601007C984785E72946FFF75FFF93E7C8
:103DF0002946FFF75BFF8FE7037C33B9D0F8B83271
:103E00005B6B0DF10600984774E72946FFF74EFFFC
:103E100082E7037C43B9D0F8B8321B6B0DF1060082
:103E200098470723437065E72946FFF73FFF73E78D
:103E30002946FFF73BFF6FE729462046FFF736FF8D
:103E40006AE7204600F0D2FA66E738B504468B8868
:103E5000FBB9CB88EBB94B887F2B1AD803F07F05D1
:103E600090F89C32DBB2032B0CD080F89E5229468E
:103E700000F010FD204600F0B9FA35B1022384F8B5
:103E80009C3209E0FFF712FF06E0012384F89C3220
:103E900002E02046FFF70AFF38BD000070B5044677
:103EA0000E468D782F4B1D70012D10D890F89C3246
:103EB000DBB2022B0FD0032B26D0FFF7F7FE294BE6
:103EC00019782046FFF706FD0325284670BDFFF749
:103ED000EDFE0325F9E7A5B145602946FFF7F1FCA2
:103EE000054638B131462046FFF7E0FE022384F84C
:103EF0009C32EAE7204600F079FA032384F89C32EA
:103F0000E3E700F073FAE0E7CDB141688D4225D0D8
:103F1000C9B2FFF7DFFC134B197861602046FFF749
:103F2000D0FC0546B0B131462046FFF7BFFE2179EF
:103F30002046FFF7CFFC022384F89C32C5E702231A
:103F400080F89C3245602946FFF7C4FC204600F00B
:103F50004DFABAE7204600F049FAB6E700F046FA13
:103F60000025B2E7C001002008B5CB88012B0BD19A
:103F700090F89C32DBB2022B09D9032B11D101221C
:103F8000011D00F007FA01E0FFF790FE08BD5BB2EB
:103F90003BB10146002341F8083F012200F0FAF945
:103FA000F4E7FFF783FEF1E708B590F89C32013B98
:103FB000022B12D8CB88022B0CD10123C360D0F87E
:103FC000A4320BB10323C360022200F10C0100F004
:103FD000E1F908BDFFF76AFEFBE7FFF767FEF8E7C8
:103FE00008B54B88012B04D0022B07D0FFF75EFEEB
:103FF00008BDC0F8A43200F0F9F9F9E78B881B0A74
:1040000080F8A03200F0F2F9F2E708B590F89C329F
:10401000013B022B09D84B88012B00D008BD00239F
:10402000C0F8A43200F0E2F9F8E7FFF73FFEF5E749
:1040300038B50C7804F06004202C06D0402C04D055
:104040006CB1FFF733FE002407E0D0F8D432AE3372
:1040500050F823309B6898470446204638BD4D7879
:10406000092D1DD8DFE805F012191C161C08051CC7
:104070000F0BFFF725FEF0E7FFF7E7FEEDE7FFF791
:104080000DFF0446E9E7FFF76FFFE6E7FFF78CFF58
:104090002C46E2E7FFF7A4FFDFE7FFF7B6FFDCE718
:1040A000FFF704FED9E770B505460C460B7803F020
:1040B0006003202B07D0402B05D023B1FFF7F6FD7E
:1040C0000026304670BD95F89C32013B022B26D865
:1040D0002179012905D921462846FFF7E7FD002669
:1040E000EFE72846FFF7CDFC68B900F1AE0255F8BE
:1040F0002220916889B1C5F8D402936821462846E8
:104100009847064600E00326E388002BD9D1002E0D
:10411000D7D1284600F06AF9D3E70326F4E7214611
:104120002846FFF7C3FD0026CBE72DE9F041064600
:104130000D468B88DFB20C7804F06004202C08D088
:10414000402C06D0DCB1FFF7B1FD00242046BDE8CD
:10415000F08139463046FFF796FC0446002840F0CF
:10416000F880C6F8D40200F1AE0356F823309B68FD
:10417000002BEBD02946304698470446E6E791F8F5
:104180000180B8F1010F31D0B8F1030F05D0B8F1BB
:10419000000F67D0FFF78AFDD8E790F89C32DBB2BA
:1041A000022B04D0032B12D0FFF780FDCEE70FB116
:1041B000802F04D129463046FFF778FDC6E73946FF
:1041C00000F058FB8021304600F054FBBEE74B88DE
:1041D00023B91FB1802F01D0CB881BB1304600F02E
:1041E00005F9B3E7394600F045FBF7E790F89C3254
:1041F000DBB2022B04D0032B12D0FFF757FDA5E74B
:104200000FB1802F04D129463046FFF74FFD9DE7BF
:10421000394600F02FFB8021304600F02BFB95E75C
:104220004B88002B92D117F07F0F17D1304600F04A
:10423000DDF839463046FFF726FC002886D1C6F85F
:10424000D40200F1AE0256F822209268002A00F053
:104250008280294630469047044677E7394600F089
:1042600011FBE3E790F89C22D2B2022A05D0032A80
:1042700027D0FFF71BFD444668E70FB1802F13D10D
:1042800013F0800F14D107F07F0707EB8707B90001
:1042900001F5A8713144043100230B60022230463D
:1042A00000F078F8444651E7FFF700FD44464DE73B
:1042B00007F07F0707EB8707B9001031314404315D
:1042C000EAE75BB2002B1FDB07F00F0202EB820272
:1042D00000EB8202B2F864211AB3002B25DB07F051
:1042E0007F0303EB83039C0004F5A8743444043477
:1042F0000FB1802F22D100232360022221463046B5
:1043000000F048F8444621E707F00F0202EB820272
:1043100000EB8202928C002ADFD1FFF7C7FC4446F3
:1043200014E7FFF7C3FC444610E707F07F0303EBF5
:1043300083039C00103434440434D9E739463046B2
:1043400000F052FA10B101232360D6E70023236066
:10435000D3E70024FAE60446F8E6D0B170B50D467E
:1043600016460446FFF784FC431C5B009BB2338077
:104370002B7003236B70022307E0EA5401345A1CAC
:10438000D2B20021A9540233DBB22278002AF4D140
:1043900070BD704708B513460222C0F894228361AD
:1043A000C3610A46002100F07DFA002008BD08B56F
:1043B00013460A46002100F075FA002008BD08B532
:1043C00013460322C0F89422C0F85831C0F85C317B
:1043D0000A46002100F06EFA002008BD08B5134619
:1043E0000A46002100F066FA002008BD08B5042244
:1043F000C0F8942200231A46194600F053FA002010
:1044000008BD08B50522C0F8942200231A461946B3
:1044100000F050FA002008BD08B500220F491048EE
:10442000FFF71AFA70B90F490D48FFF72CFA60B977
:104430000D490B48FFF7B4F950B90948FFF73DFAA9
:1044400048B908BDFCF764F9EDE7FCF761F9EFE75F
:10445000FCF75EF9F1E7FCF75BF9F2E7DC0000201E
:10446000C40100205000002094000020002070476C
:10447000002070470020704710B50146044C2046CC
:10448000FFF7A7F92046FFF7CBF9002010BD00BFCA
:10449000C401002010B5064C002206492046FFF753
:1044A0008AF905492046FFF794F9002010BD00BFA6
:1044B000C4010020A0040020A00C0020094BD3F868
:1044C000BC32D3F814320BB10120704710B5054C43
:1044D0000A4601462046FFF76EF92046FFF785F9A8
:1044E00010BD00BFC401002012230B80004870479C
:1044F000C800002004230B8000487047C40000203F
:10450000002393421ED200B510E00CF1370C01F8E5
:1045100013C000014FEA430C0CF1010C4FF0000EE8
:1045200001F80CE00133DBB2934209D24FEA107C70
:10453000B0F1204FE9D20CF1300C01F813C0E8E7DC
:104540005DF804FB7047000038B50B4BD3F8100A38
:10455000D3F8144AD3F8183AC01800D138BD074D23
:1045600008222946FFF7CCFF042205F1100120465E
:10457000FFF7C6FFF2E700BF0070FF1FAA00002090
:1045800008B51A230B80FFF7DFFF014808BD00BF05
:10459000A800002008B50A4628B905490548FFF7D4
:1045A000DCFE034808BD02490248FFF7D6FEF8E7E3
:1045B000A01400208455000810B50A46034C21467B
:1045C0000348FFF7CAFE204610BD00BFA01400201C
:1045D0009C55000808B50A4628B905490548FFF763
:1045E000BCFE034808BD02490248FFF7B6FEF8E7E3
:1045F000A0140020B055000808B50A4628B905499E
:104600000548FFF7AAFE034808BD02490248FFF724
:10461000A4FEF8E7A0140020BC55000830B589B00E
:104620000023039304930593069307930368B3F160
:10463000A04F01D009B030BD00250195164C236B69
:1046400043F001032363236B03F001030193019BF8
:104650004FF4C053039302230493032306930A23C6
:10466000079303A90D48FCF767FA636B43F08003D7
:1046700063630295636C43F480436364636C03F487
:1046800080430293029B2A4629464320FCF72CFADA
:104690004320FCF739FACDE7003802400000024021
:1046A00008B500F29C41D0F8E004FFF71CF908BD02
:1046B00008B501EBC10300EB8303D3F86022D0F807
:1046C000E004FFF7E2F908BD08B501EBC10300EB18
:1046D00083031A6AD0F8E004FFF739FA08BD08B579
:1046E000D0F8E004FFF77CF908BD10B50446C179A5
:1046F00011B1022909D10121D4F8E004FFF751F9E1
:10470000D4F8E004FFF71BF910BDFCF701F8012114
:10471000F2E7000010B50446D0F8E004FFF744F9D2
:104720002268D2F8003E43F00103C2F8003EE37A6B
:1047300023B1034A136943F00603136110BD00BFA0
:1047400000ED00E008B5D0F8E004FFF73CF908BD43
:1047500008B5D0F8E004FFF76BF908BD08B5D0F84C
:10476000E004FFF74EF908BD08B5D0F8E004FFF704
:1047700076F908BD08B5D0F8E004FFF772F908BD76
:1047800002780AB10020704710B503461548C0F8FA
:10479000E034C3F8C8024FF0A04303600423037160
:1047A0000222C2710023837142728372C372037347
:1047B0008373C373FCF724FB80B90A4C8021204625
:1047C000FDF7EBF8402200212046FDF7C0F88022DB
:1047D00001212046FDF7BBF8002010BDFBF798FF34
:1047E000EBE700BFC0180020D0F8C83211F0800FEE
:1047F00008D101F07F0101EBC10103EB810393F8C4
:104800005602704701F07F0101EBC10103EB810308
:10481000987D704708B5D0F8C802FCF7F3FC08BDD6
:1048200000487047A01600207047032805D8DFE82D
:1048300000F005040205012070470320704708B509
:10484000D0F8C802FCF75DFBFFF7EFFF08BD08B525
:1048500094461A466346D0F8C802FCF732FCFFF7CC
:10486000E4FF08BD08B5D0F8C802FCF76EFCFFF7FE
:10487000DCFF08BD08B5D0F8C802FCF7F1FCFFF773
:10488000D4FF08BD08B5D0F8C802FCF72CFDFFF72F
:10489000CCFF08BD08B5D0F8C802FCF7FFFBFFF756
:1048A000C4FF08BD08B5D0F8C802FCF7B4FCFFF798
:1048B000BCFF08BD08B5D0F8C802FCF77EFCFFF7C6
:1048C000B4FF08BDDFF834D0FCF74AF80C480D49B6
:1048D0000D4A002302E0D458C4500433C4188C425B
:1048E000F9D30A4A0A4C002301E013600432A242C1
:1048F000FBD300F039F8FBF781FF7047000002207E
:104900000000002048010020205600084801002037
:10491000F01E0020FEE700000EB400B59CB01DABF9
:10492000029006906FF000410948079104910949EF
:1049300053F8042B05910068019302A900F08EF949
:10494000029B00221A701CB05DF804EB03B07047A4
:10495000F80000200802FFFF02440346934200D102
:10496000704703F8011BF9E770B50D4D0D4C641B42
:10497000A4100026A64209D10B4D0C4C00F0D0FD2E
:10498000641BA4100026A64205D170BD55F8043B57
:1049900098470136EEE755F8043B98470136F2E7B1
:1049A0001856000818560008185600081C5600082B
:1049B0007047704738B50546002941D051F8043C8E
:1049C0000C1F002BB8BFE41800F0E0F81D4A136874
:1049D00033B9636014602846BDE8384000F0DCB8A5
:1049E000A34208D9206821188B4201BF19685B686F
:1049F00009182160EDE71A465B680BB1A342FAD9AA
:104A000011685018A0420BD120680144501883420D
:104A10001160E0D118685B68536008441060DAE701
:104A200002D90C232B60D6E7206821188B4204BFE3
:104A300019685B68636004BF091821605460CAE7A5
:104A400038BD00BFE81E002070B50F4E0C4631681F
:104A5000054611B900F0A4FB30602146284600F05D
:104A60009FFB431C03D14FF0FF34204670BDC41C94
:104A700024F00304A042F8D0211A284600F090FB4D
:104A80000130F2D1EFE700BFE41E00202DE9F8432A
:104A9000CD1C25F0030508350C2D38BF0C25002D45
:104AA000064601DBA94204D90C2333600020BDE88F
:104AB000F883DFF8D48000F069F8D8F800301C469D
:104AC00044BB29463046FFF7BFFF431C044658D17C
:104AD000D8F800402746002F43D1002C4BD0236844
:104AE0003946304604EB030900F05AFB814542D1B8
:104AF00021686D1A29463046FFF7A6FF01303AD0EB
:104B000023682B442360D8F800305A6862BBC8F889
:104B100000700FE02268521B20D40B2A17D96119AC
:104B2000A342256018BF5960636808BFC8F8001029
:104B300062514B60304600F02FF804F10B00231D4A
:104B400020F00700C21A1CBF1B1AA350AFE762680F
:104B5000A3420CBFC8F800205A60EBE72346646804
:104B6000AEE73C467F68B6E71A465B68A342FBD1D6
:104B700000235360DEE70C233360304600F00CF86E
:104B800094E70560D6E700BFE81E00200148FFF764
:104B90000FBF00BFE01E00200148FFF70ABF00BFA3
:104BA000E01E00202DE9F0478E681F46BE420B68CC
:104BB00082460C4690462DD8B1F90C2012F4906F25
:104BC00026D06569096905EB4505A3EB010905EBED
:104BD000D5757B1C4B446D109D4238BF1D46530557
:104BE00027D52946FFF752FF064660B321694A469A
:104BF00000F0E6FAA38923F4906343F08003A381D5
:104C0000266165614E44A5EB09052660A5603E4618
:104C1000BE4200D93E4620683246414600F0A6FA20
:104C2000A3689B1BA3602368334423600020BDE876
:104C3000F0872A4600F0D2FA06460028E0D1216922
:104C40005046FFF7B7FE0C23CAF80030A38943F0A3
:104C50004003A3814FF0FF30E9E700002DE9F04F5A
:104C600098468B891B069DB007460D46144610D505
:104C70000B6973B94021FFF709FF2860286130B93B
:104C80000C233B604FF0FF301DB0BDE8F08F402398
:104C90006B610023099320238DF82930CDF80C8017
:104CA0003023DFF89C818DF82A304FF0010923462C
:104CB0009A4613F8012B0AB1252AF9D1BAEB040B55
:104CC0000BD05B46224629463846FFF76BFF013082
:104CD00000F0A780099A5A4409929AF80030002BF4
:104CE00000F09F8000234FF0FF32CDE905230AF149
:104CF000010A049307938DF853301A935446052202
:104D000014F8011B4E48FBF74BFA049AD8B9D006A9
:104D100044BF20238DF85330110744BF2B238DF857
:104D200053309AF800302A2B15D0079A54460020A9
:104D30004FF00A0C214611F8013B303B092B4BD9AF
:104D4000B0B1079214E0A0EB080309FA03F3134390
:104D50000493A246D2E7039B191D1B680391002B05
:104D6000BBBF5B4242F0020207930793B8BF0492B5
:104D700023782E2B0AD163782A2B32D1039B1A1D5C
:104D80001B68039243EAE37302340593DFF8C0A083
:104D9000217803225046FBF703FA38B1049BA0EBBD
:104DA0000A004022824013430134049314F8011B8B
:104DB00024488DF828100622FBF7F2F9002836D097
:104DC000214B1BBB039B073323F0070308330393DB
:104DD000099B334409936AE70CFB02320C4601201D
:104DE000A8E700230134059319464FF00A0C20462A
:104DF00010F8012B303A092A03D9002BC6D00591AF
:104E0000C4E70CFB012104460123F0E703AB009348
:104E10002A460E4B04A93846AFF30080421C0646D2
:104E2000D6D1AB895B063FF52DAF09982CE703ABD4
:104E300000932A46054B04A9384600F079F8EDE7BF
:104E4000DC550008E655000800000000A54B0008EE
:104E5000E25500082DE9F047164698468A680B6926
:104E6000DDF820909342B8BF1346336091F8432099
:104E700007460C460AB1013333602368990642BFE6
:104E8000336802333360256815F0060506D104F156
:104E9000190AE36832689B1AAB4226DC94F8433067
:104EA0002268003B18BF012392062BD404F1430271
:104EB00041463846C84701301ED02368226903F0B6
:104EC0000603042B02BFE5683368ED1AA3680CBF24
:104ED00025EAE57500259342C4BF9B1AED1800260C
:104EE0001A34B5421AD1002008E001235246414647
:104EF0003846C847013003D14FF0FF30BDE8F08796
:104F00000135C6E7E1185A1C302081F843002244DD
:104F100094F8451082F843100233C7E70123224674
:104F200041463846C8470130E6D00136D9E700008F
:104F30002DE9FF470F7E0C9E782F914680460C4648
:104F40009A4601F1430207D8622F0AD8002F00F0D9
:104F5000D180582F00F0B88004F1420684F84270E6
:104F60003AE0A7F16303152BF6D801A151F823F01D
:104F7000C94F0008DD4F0008594F0008594F00087D
:104F8000594F0008594F0008DD4F0008594F0008DD
:104F9000594F0008594F0008594F0008DB500008CE
:104FA0000750000895500008594F0008594F000855
:104FB000FD500008594F000807500008594F0008DD
:104FC000594F00089D50000833681A1D1B68326055
:104FD00004F1420684F8423001239CE033682068E3
:104FE000191D3160060601D51D6803E04506FBD595
:104FF000B3F90050002D03DA2D236D4284F84330BD
:1050000058480A2311E021683368080653F8045B06
:1050100002D4490648BFADB26F2F5248336014BF67
:105020000A230823002184F843106668A660002E36
:1050300005DB21682E4321F0040121604BD0164688
:10504000B5FBF3F103FB1157C75D06F8017D2F4651
:10505000BB420D46F4D9082B0BD12368DF0708D5D6
:10506000236961689942DEBF302306F8013C06F1EE
:10507000FF36921B2261CDF800A04B4603AA2146C1
:105080004046FFF7E7FE01304AD14FF0FF3004B051
:10509000BDE8F087236843F0200323603248782777
:1050A00084F84570236831681F0651F8045B02D408
:1050B0005F0648BFADB23160D90744BF43F020035B
:1050C00023601DB11023ADE72648E9E7236823F0EC
:1050D00020032360F6E71646BDE73368256861695B
:1050E000181D30602E061B6801D5196002E06806A5
:1050F000FBD51980002323611646BCE733681A1DCF
:1051000032601E68626800213046FBF749F808B13A
:10511000801B606063682361002384F84330AAE742
:105120002369324649464046D0470130ADD0236816
:105130009B0713D4E068039B9842B8BF1846A6E7C4
:105140000123324649464046D04701309DD00135C3
:10515000E36803995B1AAB42F2DCEBE7002504F14C
:105160001906F5E7ED550008FE550008884210B510
:1051700001EB020402D98442234607D8431EA14210
:1051800008D011F8012B03F8012FF8E7024401467B
:105190008A4200D110BD13F8014D02F8014DF7E726
:1051A00038B5064D0023044608462B6000F04CF845
:1051B000431C02D12B6803B1236038BDDC1E0020E4
:1051C0000A44914200F1FF3300D1704710B511F845
:1051D000014B03F8014F9142F9D110BD2DE9F04187
:1051E000074614460D4621B9BDE8F0411146FFF7C8
:1051F0004DBC2AB9FFF7DEFB25462846BDE8F08105
:1052000000F01AF88442064602D8B4EB500FF4D8E6
:1052100021463846FFF73AFC804608B94546ECE798
:10522000B4422246294628BF3246FFF7C9FF294625
:105230003846FFF7BFFBF1E751F8043C181F002B7D
:10524000BCBF0B58C0187047044A05491368002BAF
:1052500008BF0B461844106018467047EC1E00202B
:10526000F01E00202DE9F047089D0E4604460F462B
:10527000002B4AD194468C45B2FA82F260D942B1F1
:10528000C2F12003974020FA03F30CFA02FC1F43FB
:1052900094404FEA1C4E1FFA8CF6B7FBFEF1230C2C
:1052A0000EFB117743EA074301FB06F098420AD947
:1052B0001CEB030301F1FF3780F01581984240F2A7
:1052C0001281023963441B1AA4B2B3FBFEF00EFB39
:1052D000103344EA034400FB06F6A6420AD91CEB4D
:1052E000040400F1FF3380F00081A64240F2FD800B
:1052F0006444023840EA0140A41B00211DB1D4409F
:105300000023C5E90043BDE8F0878B4205D90DB104
:10531000C5E9000100210846F5E7B3FA83F1002949
:1053200046D1B34202D3824200F2F580841A66EB82
:10533000030201201746002DE5D0C5E90047E2E74A
:10534000002A40F09380A1EB0C034FEA1C471FFAA0
:105350008CFE0121B3FBF7F607FB1630230C43EA62
:1053600000430EFB06F0984208D91CEB030306F13C
:10537000FF3802D2984200F2D08046461B1AA4B2EF
:10538000B3FBF7F007FB103344EA03440EFB00FEC7
:10539000A64508D91CEB040400F1FF3302D2A64550
:1053A00000F2B6801846A4EB0E0440EA0640A5E7DA
:1053B000C1F120078B4022FA07FC4CEA030C06FAE5
:1053C00001FE20FA07F426FA07F344EA0E0400FA75
:1053D00001F84FEA1C404FEA1449B3FBF0FE1FFAF4
:1053E0008CF600FB1E3349EA03430EFB06F9994590
:1053F00002FA01F20BD91CEB03030EF1FF3A80F025
:105400008580994540F28280AEF1020E6344A3EBA1
:105410000909A4B2B9FBF0F300FB139944EA09446B
:1054200003FB06F6A64208D91CEB040403F1FF3087
:1054300068D2A64266D9023B644443EA0E40A41BEC
:10544000A0FB02E6B4427346B14652D34FD05DB1E1
:10545000B8EB030264EB090404FA07F722FA01F33C
:105460001F43CC40C5E9007400214CE7C2F1200184
:1054700020FA01F30CFA02FC26FA01F196403343BC
:105480004FEA1C471FFA8CFEB1FBF7F007FB101622
:10549000190C41EA064100FB0EF68E4204FA02F4B2
:1054A00008D91CEB010100F1FF382DD28E422BD917
:1054B00002386144891B9BB2B1FBF7F607FB16115A
:1054C00043EA014306FB0EF1994208D91CEB0303A2
:1054D00006F1FF3814D2994212D9023E63445B1A96
:1054E00046EA004136E73946EDE6184602E7F04560
:1054F000ADD2BEEB020366EB0C060138B146A6E75F
:105500004646ECE7034698E74046D3E7D6467EE7B3
:105510006444023847E708460DE7023E63442DE73E
:10552000F8B500BFF8BC08BC9E467047F8B500BF90
:08553000F8BC08BC9E46704760
:1055380052656365697665643A2049443D3078254B
:1055480030386C580A444C433D25750A44617461EF
:105558003D25303258202530325820253032582009
:105568002530325820253032582025303258202511
:1055780030325820253032580A00000053544D3339
:1055880032205669727475616C20436F6D506F726A
:105598007400000053544D6963726F656C656374E1
:1055A800726F6E696373000043444320436F6E66F5
:1055B8006967000043444320496E746572666163FD
:1055C8006500000000000000000000000102030464
:1055D80006070809232D302B2000686C4C006566EF
:1055E800674546470030313233343536373839412C
:1055F8004243444546003031323334353637383942
:08560800616263646566000045
:0856100080ABFF7F01000000E8
:0456180099020008EB
:04561C00750200080B
:105620000024F40001000000100000000902430003
:10563000020100C032090400000102020100052439
:1056400000100105240100010424020205240600C3
:10565000010705820308001009040100020A000086
:10566000000705010240000007058102400000001C
:10567000B33600084F36000835350008000000003A
:105680005D330008B93400088134000800000000D0
:10569000000000000000000039340008F133000869
:1056A000A93300089D3300080A06000200000040EC
:1056B00001000000954400086D4400087144000892
:1056C00079440008754400081A0300000000000037
:1056D00000000000000000000000000000000000CA
:1056E000000000000403090412010002020200404D
:1056F000830440570002010203010000E94400084E
:10570000F5440008B94500089545000881450008A2
:10571000D5450008F9450008FC0000200000000005
:10572000A41D00200C1E0020741E0020000000009C
:105730000000000000000000000000000000000069
:105740000000000000000000000000000000000059
:105750000000000000000000000000000000000049
:08576000000000000000000041
:04000005080048C5E2
:00000001FF
